{
  "_format": "hh-sol-artifact-1",
  "contractName": "KingOfFools",
  "sourceName": "Contracts/token.sol",
  "abi": [
    {
      "inputs": [],
      "stateMutability": "nonpayable",
      "type": "constructor"
    },
    {
      "anonymous": false,
      "inputs": [
        {
          "indexed": true,
          "internalType": "address",
          "name": "previousOwner",
          "type": "address"
        },
        {
          "indexed": true,
          "internalType": "address",
          "name": "newOwner",
          "type": "address"
        }
      ],
      "name": "OwnershipTransferred",
      "type": "event"
    },
    {
      "inputs": [],
      "name": "Send",
      "outputs": [],
      "stateMutability": "payable",
      "type": "function"
    },
    {
      "inputs": [],
      "name": "owner",
      "outputs": [
        {
          "internalType": "address",
          "name": "",
          "type": "address"
        }
      ],
      "stateMutability": "view",
      "type": "function"
    },
    {
      "inputs": [],
      "name": "paused",
      "outputs": [
        {
          "internalType": "bool",
          "name": "",
          "type": "bool"
        }
      ],
      "stateMutability": "view",
      "type": "function"
    },
    {
      "inputs": [],
      "name": "previousPersonAdress",
      "outputs": [
        {
          "internalType": "address",
          "name": "",
          "type": "address"
        }
      ],
      "stateMutability": "view",
      "type": "function"
    },
    {
      "inputs": [],
      "name": "previousPersonBid",
      "outputs": [
        {
          "internalType": "uint256",
          "name": "",
          "type": "uint256"
        }
      ],
      "stateMutability": "view",
      "type": "function"
    },
    {
      "inputs": [],
      "name": "renounceOwnership",
      "outputs": [],
      "stateMutability": "nonpayable",
      "type": "function"
    },
    {
      "inputs": [
        {
          "internalType": "bool",
          "name": "_state",
          "type": "bool"
        }
      ],
      "name": "setPaused",
      "outputs": [],
      "stateMutability": "nonpayable",
      "type": "function"
    },
    {
      "inputs": [
        {
          "internalType": "address",
          "name": "_adress",
          "type": "address"
        }
      ],
      "name": "setPreviousPersonAdress",
      "outputs": [],
      "stateMutability": "nonpayable",
      "type": "function"
    },
    {
      "inputs": [
        {
          "internalType": "uint256",
          "name": "_previousPersonBid",
          "type": "uint256"
        }
      ],
      "name": "setPreviousPersonBid",
      "outputs": [],
      "stateMutability": "nonpayable",
      "type": "function"
    },
    {
      "inputs": [
        {
          "internalType": "address",
          "name": "newOwner",
          "type": "address"
        }
      ],
      "name": "transferOwnership",
      "outputs": [],
      "stateMutability": "nonpayable",
      "type": "function"
    }
  ],
  "bytecode": "0x608060405260006001556000600260146101000a81548160ff02191690831515021790555034801561003057600080fd5b5061004d61004261005260201b60201c565b61005a60201b60201c565b61011e565b600033905090565b60008060009054906101000a900473ffffffffffffffffffffffffffffffffffffffff169050816000806101000a81548173ffffffffffffffffffffffffffffffffffffffff021916908373ffffffffffffffffffffffffffffffffffffffff1602179055508173ffffffffffffffffffffffffffffffffffffffff168173ffffffffffffffffffffffffffffffffffffffff167f8be0079c531659141344cd1fd0a4f28419497f9722a3daafe3b4186f6b6457e060405160405180910390a35050565b610bda8061012d6000396000f3fe6080604052600436106100915760003560e01c806392d282c11161005957806392d282c114610155578063a89990cd1461015f578063b6942baa1461018a578063e8a82362146101b5578063f2fde38b146101de57610091565b806316c38b3c146100965780635c975abb146100bf578063715018a6146100ea5780637663fcee146101015780638da5cb5b1461012a575b600080fd5b3480156100a257600080fd5b506100bd60048036038101906100b891906106f9565b610207565b005b3480156100cb57600080fd5b506100d461022c565b6040516100e19190610735565b60405180910390f35b3480156100f657600080fd5b506100ff61023f565b005b34801561010d57600080fd5b5061012860048036038101906101239190610786565b610253565b005b34801561013657600080fd5b5061013f610265565b60405161014c91906107f4565b60405180910390f35b61015d61028e565b005b34801561016b57600080fd5b50610174610476565b604051610181919061081e565b60405180910390f35b34801561019657600080fd5b5061019f61047c565b6040516101ac91906107f4565b60405180910390f35b3480156101c157600080fd5b506101dc60048036038101906101d79190610865565b6104a2565b005b3480156101ea57600080fd5b5061020560048036038101906102009190610865565b6104ee565b005b61020f610572565b80600260146101000a81548160ff02191690831515021790555050565b600260149054906101000a900460ff1681565b610247610572565b61025160006105f0565b565b61025b610572565b8060018190555050565b60008060009054906101000a900473ffffffffffffffffffffffffffffffffffffffff16905090565b600260149054906101000a900460ff16156102de576040517f08c379a00000000000000000000000000000000000000000000000000000000081526004016102d5906108ef565b60405180910390fd5b60026001546102ed919061096d565b6001546102fa919061099e565b34101561033c576040517f08c379a000000000000000000000000000000000000000000000000000000000815260040161033390610a40565b60405180910390fd5b600073ffffffffffffffffffffffffffffffffffffffff16600260009054906101000a900473ffffffffffffffffffffffffffffffffffffffff1673ffffffffffffffffffffffffffffffffffffffff161461042c576000600260009054906101000a900473ffffffffffffffffffffffffffffffffffffffff1673ffffffffffffffffffffffffffffffffffffffff16346040516103da90610a91565b60006040518083038185875af1925050503d8060008114610417576040519150601f19603f3d011682016040523d82523d6000602084013e61041c565b606091505b505090508061042a57600080fd5b505b3460018190555033600260006101000a81548173ffffffffffffffffffffffffffffffffffffffff021916908373ffffffffffffffffffffffffffffffffffffffff160217905550565b60015481565b600260009054906101000a900473ffffffffffffffffffffffffffffffffffffffff1681565b6104aa610572565b80600260006101000a81548173ffffffffffffffffffffffffffffffffffffffff021916908373ffffffffffffffffffffffffffffffffffffffff16021790555050565b6104f6610572565b600073ffffffffffffffffffffffffffffffffffffffff168173ffffffffffffffffffffffffffffffffffffffff161415610566576040517f08c379a000000000000000000000000000000000000000000000000000000000815260040161055d90610b18565b60405180910390fd5b61056f816105f0565b50565b61057a6106b4565b73ffffffffffffffffffffffffffffffffffffffff16610598610265565b73ffffffffffffffffffffffffffffffffffffffff16146105ee576040517f08c379a00000000000000000000000000000000000000000000000000000000081526004016105e590610b84565b60405180910390fd5b565b60008060009054906101000a900473ffffffffffffffffffffffffffffffffffffffff169050816000806101000a81548173ffffffffffffffffffffffffffffffffffffffff021916908373ffffffffffffffffffffffffffffffffffffffff1602179055508173ffffffffffffffffffffffffffffffffffffffff168173ffffffffffffffffffffffffffffffffffffffff167f8be0079c531659141344cd1fd0a4f28419497f9722a3daafe3b4186f6b6457e060405160405180910390a35050565b600033905090565b600080fd5b60008115159050919050565b6106d6816106c1565b81146106e157600080fd5b50565b6000813590506106f3816106cd565b92915050565b60006020828403121561070f5761070e6106bc565b5b600061071d848285016106e4565b91505092915050565b61072f816106c1565b82525050565b600060208201905061074a6000830184610726565b92915050565b6000819050919050565b61076381610750565b811461076e57600080fd5b50565b6000813590506107808161075a565b92915050565b60006020828403121561079c5761079b6106bc565b5b60006107aa84828501610771565b91505092915050565b600073ffffffffffffffffffffffffffffffffffffffff82169050919050565b60006107de826107b3565b9050919050565b6107ee816107d3565b82525050565b600060208201905061080960008301846107e5565b92915050565b61081881610750565b82525050565b6000602082019050610833600083018461080f565b92915050565b610842816107d3565b811461084d57600080fd5b50565b60008135905061085f81610839565b92915050565b60006020828403121561087b5761087a6106bc565b5b600061088984828501610850565b91505092915050565b600082825260208201905092915050565b7f54686520636f6e74726163742069732070617573656421000000000000000000600082015250565b60006108d9601783610892565b91506108e4826108a3565b602082019050919050565b60006020820190508181036000830152610908816108cc565b9050919050565b7f4e487b7100000000000000000000000000000000000000000000000000000000600052601260045260246000fd5b7f4e487b7100000000000000000000000000000000000000000000000000000000600052601160045260246000fd5b600061097882610750565b915061098383610750565b9250826109935761099261090f565b5b828204905092915050565b60006109a982610750565b91506109b483610750565b9250827fffffffffffffffffffffffffffffffffffffffffffffffffffffffffffffffff038211156109e9576109e861093e565b5b828201905092915050565b7f506c656173652053656e642061206869676865722078312e3520426964000000600082015250565b6000610a2a601d83610892565b9150610a35826109f4565b602082019050919050565b60006020820190508181036000830152610a5981610a1d565b9050919050565b600081905092915050565b50565b6000610a7b600083610a60565b9150610a8682610a6b565b600082019050919050565b6000610a9c82610a6e565b9150819050919050565b7f4f776e61626c653a206e6577206f776e657220697320746865207a65726f206160008201527f6464726573730000000000000000000000000000000000000000000000000000602082015250565b6000610b02602683610892565b9150610b0d82610aa6565b604082019050919050565b60006020820190508181036000830152610b3181610af5565b9050919050565b7f4f776e61626c653a2063616c6c6572206973206e6f7420746865206f776e6572600082015250565b6000610b6e602083610892565b9150610b7982610b38565b602082019050919050565b60006020820190508181036000830152610b9d81610b61565b905091905056fea2646970667358221220ad60e374269b07099f481223806bb611126f00e003ec3fd77ed69643adf404c164736f6c63430008090033",
  "linkReferences": {},
  "deployedLinkReferences": {}
}